:020000040000FA
:100000000A128A11EE2F00308A000408840A82073F
:100010000034203420342034203420342034203460
:100020002034203420342034203420342034203430
:10003000203400344F3470346534723461346E349B
:1000400064346F342E342E342E3420342034203453
:10005000203420340034533461346C3476346534C5
:100060002034643461346E34613464346F34213448
:10007000203420342034003443346F346E346634FA
:10008000693467347534723461346E3464346F3477
:100090002E342E342E3420340034413475347834E8
:1000A00069346C3469346F34203420346B346534F3
:1000B00062347234613464346134003431343A343B
:1000C0004F347034653472346134633461346F3466
:0E00D000203443343A346334663467340034E9
:100AC800831603178901F0308316031386008312F7
:100AD800031386010800313432343334413434345A
:100AE80035343634423437343834393443342A349C
:100AF800303423344434F5007508F400063003100C
:100B0800F40DFF3E031D832D730874077F39803E63
:100B18000A128A11A0260A128A1108007E088A0081
:100B28007F0882000A128A1192250A128A1180000F
:100B3800840A04087D0603190034FF0A0319FE0A13
:100B4800962DB42D0130F0020030031CF103F102A0
:100B5800C730F200AF2DF20BAE2DB22DB32DB42D50
:100B680070087104031DB92DBA2DA62DBB2D0800E0
:100B780083160313081188110812881208138813A2
:100B880083120313881528300A128A11A0260A1224
:100B98008A110C300A128A11A0260A128A11013011
:100BA8000A128A11A0260A128A1102300A128A1120
:100BB800A0260A128A110800F200831203130815EE
:100BC8007208F00004300310F00CFF3E031DE72DFF
:100BD8007008F100F10E080871060F3971068800D7
:100BE80088110D30F000F00BF72D831203138815D0
:100BF800081572080F39F000F00E080870060F3952
:100C08007006880088110D30F000F00B092E831251
:100C1800031388150800FA007608F8007808F90028
:100C28007608F8007808F3007A080A128A117F25F6
:100C38000A128A11342E770884000A128A110320B6
:100C48000A128A110A128A11E0250A128A11013041
:100C5800F8007808F7070130F8007808F907342E0B
:100C6800770884000A128A1103200A128A11003AAE
:100C7800031D3F2E402E1F2E412E0800F401F601C1
:100C880004307602031C492E4A2E4C2E9D2E9D2E92
:100C98000130F000760A522E0310F00DFF3E031DBE
:100CA800502E7008831203138600F5010430750274
:100CB800031C5F2E602E622E922E922E1030F000B2
:100CC800750A682E0310F00DFF3E031D662E70088E
:100CD80006050319702E712E872E7608F000023053
:100CE8000310F00DFF3E031D742E20307007F10035
:100CF80075087107F2007208840083130008F30076
:100D08007308F400872E0130F0007008F5070430EE
:100D18007502031C902E912E622E922E0130F00047
:100D28007008F60704307602031C9B2E9C2E4C2E6E
:100D38009D2E74089F2E0800F200831203130811D9
:100D48007208F00004300310F00CFF3E031DA72EBC
:100D58007008F100F10E080871060F397106880055
:100D6800881172030319B92EBA2EC12E02307206E9
:100D7800031DBF2EC02ECB2EC12E0330F10097309D
:100D8800F000F00BC52EF10BC52ECA2ED02E0D305B
:100D9800F000F00BCD2ED02E831203138815F030FF
:100DA8007205F00020307006031DDB2EDC2EF62EB7
:100DB80008117208F00004300310F00CFF3E031D08
:100DC800E02E7008F100F10E080871060F3971065F
:100DD800880088110D30F000F00BF02E83120313F9
:100DE8008815F62E081172080F39F000F00E080861
:100DF80070060F3970068800881172030319052FD1
:100E0800062F0D2F02307206031D0B2F0C2F172FE4
:100E18000D2F0330F1009730F000F00B112FF10B7C
:100E2800112F162F1C2F0D30F000F00B192F1C2F2F
:100E3800831203138815080083120313B001B1014C
:100E48000A128A1164250A128A110A128A11BC250B
:100E58000A128A112F2F0A128A1142260A128A119F
:100E6800FB007B0883120313B100D02FB001B00A36
:100E78002F2FF6012330FB007B08F70000300A1201
:100E88008A110F260A128A11A030F0000F30F100E3
:100E98000A128A11A5250A128A110A30FB007B085A
:100EA80083120313B0002F2FF6014530FB007B0897
:100EB800F70000300A128A110F260A128A11F60169
:100EC8005630FB007B08F70001300A128A110F2602
:100ED8000A128A113130831203133106031D752F4C
:100EE800762F7B2F1430FB007B08B0007B2F43301C
:100EF8003106031D802F812F2F2F6430FB007B08C4
:100F0800B0002F2F2F2FF6011230FB007B08F700BF
:100F180000300A128A110F260A128A11F6010130CE
:100F2800FB007B08F70001300A128A110F260A120B
:100F38008A112A30831203133106031DA42FA52F0B
:100F48002F2F0A30FB007B08B0002F2F2F2FF60120
:100F58003430FB007B08F70000300A128A110F2694
:100F68000A128A11F6010130FB007B08F7000130F4
:100F78000A128A110F260A128A112A3083120313C1
:100F88003106031DC82FC92F2F2F0A30FB007B08FD
:100F9800B0002F2F2F2F2F2F3008FB00FC017C08CB
:100FA800003A0319D82F2F2F7B08003A03193A2F3C
:100FB800013A03193D2F0B3A0319582F1E3A03190A
:100FC800872F703A0319AB2F2F2F2F2F2F2F0A128D
:100FD8008A11002883133030FD000530FE006F3081
:100FE800FF00203084000A128A1196250A128A11FD
:080FF80083010A128A11202F67
:04400E00D4E0FFFFFC
:00000001FF
